:200000000040002041C6000001C9011001C9011001C9011001C9011001C9011001C9011057
:1C00200001C9011001C9011001C9011001C9011001C9011001C901103FC9011089
:20003C002DE9F04FD64C04F108012046ADF1440D0BF0F2FF04F130050021284600F05AFBF0
:20005C00D04904F1700641F2883201233046E5600CF0AEF9002001460BF090FBDFF85083FA
:20007C001F22062360604146102003F013FE00255020ADF822004FF44871ADF82410D34F2C
:20009C008DF8375004F15102ADF826504FF47A70FD811E21ADF828004FF4427003F008F836
:2000BC0040F20730072104F1200203F001F84FF4447001210DF1370202F0FAFF40F21130E2
:2000DC0002210DF1220202F0F3FF40F21230022109AA02F0EDFF40F2133002210DF12602F5
:2000FC0002F0E6FF4FF4457002210AAA02F0E0FF04F13C002A461523C9490090102003F0CF
:20011C00C9FD414610200622A02303F0C3FD414610200722A02303F0BDFD41461020082277
:20013C00A02303F0B7FD414610200922A02303F0B1FDA9460120BB4D8DF8380003468DF850
:20015C0039004FF480628DF83A901E468DF83C9029468DF83B6010200EAE009603F09AFD86
:20017C000DF139002946009040F202420123102003F090FD0DF13A00294640F203420123A1
:20019C000090102003F086FD0DF13B00294640F2064201230090102003F07CFD0FA8294675
:2001BC004FF4836201230090102003F073FDBF4910204FF0FF3203F06DFDBD4910204FF03A
:2001DC00FF3203F067FD1020DFF80CA3C34BC44A009051460193132303F05CFDC14E3078B5
:2001FC0080000EF0DFFDC04D0146B846E960C1B14FF6FF700CF0CAFF307880000EF0D2FD0E
:20021C000146296169B14FF6FF700CF0BFFFC14B10205146009005F11C020193122303F036
:20023C0039FD06AE4946022230460AF02DF90420BD498DF83D000A6804AF3A600979397198
:20025C003188EB1C03200DF13D02198002272F70012168700BF0E0F8052104AA04200BF041
:20027C00DBF8E91C98F8017098F800001091BFB904F11401C8F820100DF0E6FA08F15407B5
:20029C00CDF80090024608F14400019008F11C060297BC49039698F80230102003F0FAFCAA
:2002BC0004F1180004F12802B749A860102003F0F1FC20780DF0C8FAB4490246102003F01F
:2002DC00E9FC20780DF0C0FAB1490246102003F0E1FCB049102003F0DDFC60684946A5A3F8
:2002FC000A460DF026FCDFF8B8B2DFF8ACA2A068AA4A00214FF0FF3300F000FA5FEA000943
:20031C00F5D0002007900DF1360107AA08A80DF08FF800287ED1BDF8201001200746102928
:20033C0073D120789DF8361088426ED1079E30884FF6FF71814268D03378913B3FD01F3BF4
:20035C0063D17078162818BF002005D138460DF0A7FC3846CAF80060E369A8B9317960687D
:20037C007E2904D07F291CD13189AAA301E0317AACA30091002205210DF0DBFB11E0C046CC
:20039C0008020020D5E90000A3B94FF6FD709F499F4A00900023102003F07CFCE369C2B26C
:2003BC0042B131790836304600F0ACF92DE0C046E1D2000043F002030027E36125E07378E2
:2003DC000E3B05D09B1E1CD01FE0C046C0070020B08842F20301814217D1B1680E78A6B939
:2003FC00491C04A80A684968026004AE41603078BE4904AA00F0FD003070102003F04AFCA5
:20041C0003E00820002104F077FE079810B10FB10EF08EFC5FEAD970C0F0D080C8E0C04643
:20043C0029A00000D9350000E668304600F06EF9864208BF002702D087680BF03DFB381CB0
:20045C0000F0B6803888401E00F0AC80401E76D0801E4BD0001F2DD0083840F0A680E069C8
:20047C0080081ED3DAF80060DEB1708831790836324600F04FF90646162E03D0042E01D030
:20049C000DF00EFCE36966B933F00203E36108D15E495F4A4FF6FD7001230090102003F0B0
:2004BC00F9FB78680BF008FB7FE0C04615DE000059E00000786806783EB1CDF800B0606833
:2004DC00042100225BA30DF034FBCDF800B08649B8F810200023E1E7C5D90000A00301003E
:2004FC00A40B0020694F0020480E00207968BE7862680878D6B1012E0ED0022E07D0032E96
:20051C001BD1002808BF4FA311D053A309E0A0B957A30CE0AC030100002808BF58A306D083
:20053C005BA3009003E0C046050401005DA31046022100220DF0FDFA79680846B2E7BE7891
:20055C00606826B1B61E30D169785AA30BE010990A880DF1320632809DF832109DF8332060
:20057C0057A341EA02210091002204210DF0E1FA1BE0C046424C4520506572697068657234
:20059C00616C00C01BC80000E9E200005188011031810110C5AB00101C200020010000C0BA
:2005BC0040E20100B87804F0C5FB38460BF084FAE06800F0B3F800283FF436AF5FEA59005C
:2005DC00FFF495AE4A4800F0ADF84648B0F9000000283FF58CAE0DF12A000021052209F06C
:2005FC0053FF4048068805210DF12A028DF82A6030128DF82B0004200AF00EFF009660689D
:20061C000421002232A30DF094FA70E68DBC0000A9E500004D54552053697A653A20256456
:20063C0000C046C046432056696F6C617465643A2025640050617373636F64653A202564FF
:20065C0000C046C0426F6E642073617665207375636365737300C046426F6E64207361765A
:20067C0065206661696C65643A20256400C046C0426F6E64696E67207375636365737300F1
:20069C0050616972696E6720737563636573730050616972696E67206661696C3A202564F2
:2006BC0000C046C050616972696E672073746172746564004368617220333A20256400C003
:2006DC004368617220313A202564206D6D00C046424C452043484152353A20256420636D33
:2006FC0000C046C0CE16002081D4000095B4001078020020DFF800F0A1B60110DFF800F0D6
:20071C00F99B0110DFF800F089840110DFF800F019BD0110DFF800F0DDFE0010DFF800F00C
:20073C004FBF0110DFF800F01FBE01102DE9F04FD04C04F118012046ADF1340D0BF06CFCA2
:20075C00D24D002604F1A40A4FF6FF700123667032462082294650460BF02AFECC4802236C
:20077C00324629460BF024FECF480423324629460BF01EFE04F14408042010223146A070FF
:20079C00404609F081FE04F1540910224846314609F07AFE04F11C073E6004F10A052E70ED
:2007BC0007206072DFF80CB3E67102222672594610200346CDF8008003F06CFA1020032270
:2007DC005946CDF80090034603F064FA0422102059460097134603F05DFA4FF0080A4FF0B0
:2007FC0003094FF0010B05F12A00079005F17900089005F11E00099005F15A000A902435D8
:20081C000B9517E06078A28FE18FB4F84050B4F8423006280ED1ADF80A20ADF80C10ADF810
:20083C000E509B48ADF8103000F038FA584602A907F09CFEA069B64A31464FF0FF33FFF793
:20085C005DFF071CF6D0059606A80DF11A0105AA0CF0EEFD002840F0C181BDF81810207830
:20087C00102940F0B7819DF81A10884240F0B281059D29884FF6FF728A4200F0A0812B7846
:20089C00A23B00F083812E3B40F0A481A978B046002900F03F81891E00F00E81491E012906
:2008BC0040F2D680891E00F09A80491E6ED0491E5BD0083900F05A81891E40F05D8194F85F
:2008DC003A10A8880529ADF8080046D070488DF812B000F0E3F994F83A0001281ED00428BD
:2008FC001CD003280DD002280BD00598C188ADF80A100189ADF80C104189ADF80E1081895C
:20091C0027E0A18FE08FADF80A10B4F84020ADF80C00B4F84210ADF80E201AE0A08FE9882E
:20093C008842D8BF081CADF80A002989E08F8842D8BF081CADF80C006989B4F84000884268
:20095C00D8BF081CADF80E00A989B4F84200884200DC0846ADF8100001E08DF81260AB4978
:20097C00102002AA03F096F906E14F4800F096F96B78002B40F00081E88860822889A0821C
:20099C006889E08242480EF027F8F5E0AA88B649102003F07FF907984146062209F074FDE8
:2009BC006682A682E682A8792073394800F076F93D4800F073F9D8464FF6FF70237920821E
:2009DC0053B9A879082814BF042005206070A069594600F067F9CFE084F80190CCE06B786F
:2009FC007BBB291D0A6807980260898881800623637068892082E8896082288AA082688A32
:200A1C0094F83A10E082E8780129E07218BF02290BD19B4910201F2203F03CF94FF47A711D
:200A3C0080B241431A480CF07DFA68890423009092490193EA7810202D1D2B4603F02AF995
:200A5C009DE06878312840F08E80E67004202EE06B78002B40F08780A878E189627803282A
:200A7C0018D0E078257939B9012814BF2671E67008E0C046C0070020054303D081480CF0EC
:200A9C0051FA6278072AE1D1062010E055EA000088080020062A09D0E578002D08BF84F857
:200ABC0001906CD0022002E0AC0800200720607065E0C046ADE200006B78002B53D1EB780F
:200ADC0061789BB902291ED007291CD0062902D12079012817D1032915D06A480DF07CFFB1
:200AFC0088B9A069594600F0DDF80CE00CF0ACFE0246A07960490090089843460190102016
:200B1C0003F0C8F868706D78002D2CD134E0C046070000806B7833BB5B48564900900222B7
:200B3C001020034603F0B6F858484A46514900901020034603F0AEF8ED1C29680998016077
:200B5C00A9888180207884F801B00CF07DFE02465B460A9D6079484900901020019503F0C8
:200B7C0099F8C0B258B184F801A008E0AA8840491020052303F08EF8B8F1010F2AD1256A79
:200B9C0045B3296831B36078884723E06879132820D12889012808D1607B022805D13E4801
:200BBC0000F07CF80CF076FC14E035491020052203F070F881B238480CF0B4F90AE06888ED
:200BDC00C00B07D3324804222A4900901346102003F060F8059808B10EF0AAF82579E078F1
:200BFC0079082ED355EA00032BD0204600787DB9E279217A8DF808200B9D8DF809102B688A
:200C1C000DF10A010B60AA888A8003E0051601108DF80890627A8DF81020A17A8DF811108A
:200C3C000CF012FE1149024602AB102003F032F838B1256A84F801A01DB1296809B15046AC
:200C5C008847B80803D31349304607F08FFCF808FFF4F0AD607B401E3FF4D4AD401E7FF471
:200C7C00E9AD0CF017FCE5E53DA9000059440110C1170110A16E000009450110C9770000BE
:200C9C0021E60000640800200408002014080020DC070020FA070020AC080020DFF800F07E
:200CBC00B9BA0110DFF800F055A401102DE9F04F09AFADF13C0D08900A92388809911E46DD
:200CDC00ADF81800101C08BF002000F07581017800274FF0010B401C4FF0FF39B846DA4666
:200CFC000A9061E1252940F056810178401C0A902D2918BFADF8068004D10178ADF806B037
:200D1C00401C0A9030291CBF4246434604D10178401C5A465B460A902A29CDF800804D46CC
:200D3C0017D1049330680A9BCDF80890C01C20F00300001D306050F8044C1978002C0094F9
:200D5C0003F101000A9018D5ADF806A06442009413E044460AE0600000EBC4004018A0F117
:200D7C0030040A9801780094401C0A90302901DB3A29F0DBCDF8089004932E2929D101785D
:200D9C00401C2A290A9011D13168CDF80880C91C21F00301091D316051F8045C002D48BF98
:200DBC00454601782B46401C0A9011E0454643460AE0680000EBC5004018A0F130050A98E5
:200DDC0001782B46401C0A90302901DB3A29F0DB02930AB1224604926C2904D04C2918BFB1
:200DFC00ADF8048004D10178ADF804A0401C0A900BA8CDF80C800FAB07906429059300F0B7
:200E1C00828069297FD0BDF818C075296DD0782969D06F2965D070294ED063293ED07329D7
:200E3C0022D00A98401E0A90099801281AD966490C68B5F1FF3F03D0A84288BF6D1C05D8DC
:200E5C006FF00041814294BF0D1C099D029508A80AA932466B46A04709993F18091A039830
:200E7C00099165E0454617E03068C01C20F00300001D306050F8040CBCF1010F014608B9A4
:200E9C004FA0014607910DF013FD0390B5F1FF3F4FD0A8424DD9039528464AE03068C01C11
:200EBC0020F00300001D306010F8040C8DF82C005D46039558463CE0082035680490E81C3B
:200EDC0020F00300001D306050F8041C082210230FA809F01DFF401E07904021017007983F
:200EFC0023E0082302E0102300E00A233068C01C20F00300001D306050F8041CAA42BCBF83
:200F1C002A1C04920DE03068C01C20F00300001D306050F8041CAA42BCBF2A1C04926FF0AE
:200F3C0009030FA809F0F4FE07900599081A0390009C241ABDF8065000945DB906E008A8D8
:200F5C00202109AA0CF01FFE7F1C009C641E0094F5D50398401EB0F1FF3F03900FD1BDF851
:200F7C00060001281CD10098401E009018D408A8202109AA0CF007FE00987F1CF4E7079875
:200F9C00017809AA08A80CF0FEFD0798401C079003987F1CDEE708A809AA0CF0F4FD7F1CEA
:200FBC000A980178401C0A9000297FF49BAE089808B14146017038460FB0BDE8F08FC04667
:200FDC00286E756C6C2900C04404010004490968091A322998BF002001D908F051B870479B
:040FFC00C8110020F8
:20100000B41200001810000045BE0000FDB301106DC00110FDAE011099B5011000000000C5
:08102000000000002D0000009B
:20102800B01200003C100000B1C00110A9BF011067C0011069B80110000000000000000035
:041048003000000074
:20104C00B012000060100000BDC00110CDB30110D9BD01106DB3011000000000000000005B
:04106C00310000004F
:20107000000000006417002004000000000000000000000020000000E8C9011030000000AF
:20109000281000006C1700200400000000000000000000000C000000D8CA0110180000008A
:2010B0004C1000007417002004000000000000000000000024000000F0CA0110180000000E
:2010D000000000007C1700200400000000000000000000001000000018CA01102C0000001A
:2010F000001000008C170020040000000000000000000000200000006CCA0110240000007E
:20111000FFFFFFFF941700200400000000000000000000002800000090CA0110240000003D
:20113000FFFFFFFF9C1700200400000000000000000000001400000008CB011018000000BC
:20115000FFFFFFFFA417002004000000000000000000000058000000B4C90110340000008A
:20117000FFFFFFFFAC1700200400000000000000000000001000000020CB01101800000058
:20119000FFFFFFFFB41700200400000000000000000000001C000000B4CA01102400000085
:2011B000FFFFFFFFBC1700200400000000000000000000003800000044CA011028000000AD
:2011D000FFFFFFFFC41700200400000000000000000000005400000078C901103C00000022
:0811F0000100000038040100B9
:0411F80001000000F2
:0411FC0000000E00E1
:0412000000000F00DB
:0412040032000000B4
:0412080001000000E1
:04120C006016002048
:0412100000020000D8
:0412140000000000D6
:0412180001C90110F7
:04121C0000000000CE
:0412200000000000CA
:0412240008000000BE
:0412280000002200A0
:04122C00B0140020DA
:0412300000000000BA
:0412340000000000B6
:0412380008000000AA
:04123C002016002058
:0412400000000000AA
:0412440000000000A6
:04124800080000009A
:04124C00000000009E
:04125000000000009A
:041254000000000096
:041258000000000092
:04125C00010000008D
:04126000481500200D
:041264000600000080
:041268000100000081
:04126C00E413002067
:04127000000000007A
:041274000000000076
:041278000002000070
:04127C00000000006E
:02128000290043
:02128200010069
:02128400250043
:02128600300036
:02128800310033
:02128A002D0035
:02128C0001005F
:01128E00015E
:0812900003000000C40301008B
:0812980000000000000000004E
:0412A0000000010049
:0412A4000000030043
:0412A80013C401105A
:0412AC00D7E7000080
:0412B000B812000070
:0412B400B81200006C
:0412B8000000000032
:0412BC002C170020CB
:0412C00053E90000EE
:0412C4002000000006
:0412C80024030100FA
:0412CC00DC01010040
:0412D00029C101101F
:0412D400CBE2000069
:0412D8002FE50000FE
:0412DC00A1C7011095
:0412E000A3C701108F
:0412E4000000000006
:0412E8006C04010091
:0412EC00C0FF00003F
:0412F000D8FF000023
:0412F400A8FF00004F
:0212F8000200F2
:0212FA000900E9
:0212FC000100EF
:0212FE000000EE
:0113000001EB
:04130400E1E800001C
:0413080039D10000D7
:04130C00EDDE000012
:04131000E5D3000021
:0413140071D1000093
:041318005DC40000B0
:04131C00699C0000C8
:041320007BEB000063
:041324001DBA0000EE
:0413280015C70110D4
:04132C0025C70110C0
:201330002DE9F04F0F46CD4C0168E16241688068ADF11C0DE060C548A1608047C448E16A6A
:201350000160A168DFF810A34160E168DFF804938160CE49002FA346C1606FD03D68E878BC
:201370008DF80C0028798DF80D0003A80EF080F8A86808B1C6490160E86808B1C5490160C7
:20139000C54C287820706878BE686070A878B268A0703178A2607368E1702E696360EA6958
:2013B00026627968E2620868E06068696062A8697B68A062286A9E68206395F8240084F8EF
:2013D00034001EB900200DF02FF800E066617868C06818B900200DF027F800E0A061786831
:2013F000006918B900200DF01FF800E0E0617868406818B900200DF017F800E020612869D7
:201410002062F86881680E6806B9D24ED0494FF001084E60C66881F8018036B900200DF059
:2014300003F84D462E68F86801E04D462E6000685446FB68A0615868E06107E000200CF0AC
:20145000F3FF4D462E684FF001085446361DC7493668621C04F114035020B04710B128683C
:2014700080688047DBF808008047C24E002781463B46BF4877706946206104223370384627
:201490000BF0CAFC0098B0F5801F0CD020B90CF0E9FA05F053FA08E00AF01CFC0DF004FAD4
:2014B0000420708001E00CF0DDFA3846BA4EA0602B68B760986980477060AF4880F800809D
:2014D0003946418014200DF0C5FAFF211422A06208F0E0FFE01CFF21022208F0DBFF142057
:2014F0000DF0B8FAA54F386038680021142208F0D1FF002000F052F940460BF09DFBA04886
:201510000188FF2906D1022101807822001D002108F0C0FF03200DF0A7FF04200DF0A0FF7A
:2015300005200DF099FF06200DF092FF07200AF03FFA944E0820307006F124000DF084FF8E
:201550000AF020FC06F1360A05200A2152460CF0A5FE38B10020C0F10901401C0AF8011B69
:201570000A28F8DB3078102106F094F92B68864909200DF10E025E68087001AB1020002126
:20159000B047A06AE1690A260A309DF80E20761E00F8012BF9D1891EE161DBF80C104846DB
:2015B000884704F120002B68626A059040461E69DFF8D88104F120034146B04710B128681F
:2015D00080688047B8460CF099FB5FEA000903D007F0BCFC4FF0FF39002643E00298216906
:2015F00010F8062CA0F10C07032A03D1002939D0884737E0A16A9DF810C00A223046491E6B
:2016100011F8013F9C4506D0521E00F10100F7D14FF0FF0A01E05FFA80FA2868BAF1FF0F4B
:2016300000F108001CD038790BF02AFDB979012904D0022904BF0299887001E0029908703D
:20165000029950460CF070FD0CE0C04641490010F8440020EC170020A8150020AC1100201B
:20167000006880472868C36904A902AA0DF10F0098470028B2D0D8F800007700C35B6BB9F7
:20169000761CF6B20A2EF8DB2BE0C04688F400006DD90000F1E50000781400200A2E20DA6E
:2016B000DBF808008047D8F80010002231F807A0CA53DBF80C108847354850F8262026702A
:2016D0005146304690470646FF202070DBF808008047D8F800107A5A16437E52DBF80C10AD
:2016F00088470CF00BFB0746B9451AD007B9294FE069B84238BF071CDBF8080080478146D6
:201710002868016A206A8847626A28681F49059B521C6262C6683846B047DBF80C104846AF
:201730008847A768296860691431AFB9D8F800000A270026835B33B1096960698847296830
:20175000D8F8000014317F1E06F10206F2D107E04417002027CE0000096988472968143197
:2017700009684FF0FF3088472DE7C04681DE000069E60000E0170020DC1700207C210020FC
:2017900048120020D40C00208E210020C9D00000640101008EC2F5281C2100202DE9F84FCA
:2017B000DFF8BC13DFF8BC23DFF8BC5308700821002010600D23DFF8B4034FF44E72017074
:2017D00043808280DFF8A8030560AC7EDFF8A4030470FF2CE97E417008BFFF292A7F827064
:2017F0006B7FC370AE7F0671ED7F457115D1FF2A08BFFF2B11D1FF2E08BFFF2D0DD1DFF83F
:2018100078130A7802704B7843708A788270CB78C3700A79027149794171DFF8601302782B
:20183000DFF85C83DFF85C93DFF85C730A70FF2543784B7082788A70C378CB7002790A7102
:201850004079487188F8005088F8015088F8025088F8035088F8045088F805500020CB49E3
:201870000880D9F83440CA49607808702278C9493A70A0780870A2681079C74A411E1170BE
:20189000E078C649C64A0870E068106008B90CF0CBFD2069C34E306008B90CF0C5FD3068CB
:2018B000DFF804A301688847326852F8041F50468847BE48BE49CAF82000CAF82410606948
:2018D000BC49086008B90CF0AFFDA069BA49086008B90CF0A9FDE069B849086008B90CF0DC
:2018F000A3FDDFF8DCB2B74C9BF804000DF0B2F80028206075D09BF80500B34E0DF0AAF86D
:20191000002830606DD09BF80600DFF8C0A20DF0A1F80028CAF8000063D09BF807000DF0A6
:2019300099F8AB49002808605BD039789BF80000891C484380B20DF08DF8A6490028886030
:201950004FD03878002862D0BBF80210484380B20DF080F8A04A0028506042D038780DF0D6
:2019700079F89E49002808603BD0387840000DF071F89B490028086033D038781821484323
:201990000DF068F8974A106058B3387840010DF061F89549086020B3387800010DF05AF81E
:2019B00092490860E8B1387800010DF053F890490860B0B13878302148430DF04BF88D4AFD
:2019D000106070B18C483978007848430DF042F88A4A106028B138780DF03CF88849086070
:2019F00018B9BDE8F14F05F0CFBA4FF0000B09E00DF000F80021418081600180022303719E
:201A10000BF1010B39785FFA8BF08842F0D32268694F0120107121680D73206845732168E6
:201A30008D732068C57321680D7400212068457400202268D172A0222168487103212068CD
:201A5000C28001720720226850720021206881722821206801224182C2760020216848775B
:201A70000022206880F85E200121226811770120216881F85D0001223068027131680D73BB
:201A90003068457331688D733068C57331680D7400213068457400203268D1720022316839
:201AB0004871306882724FF420703168C88008818A7401213368D974DAF800201573DAF840
:201AD00000104D73DAF800209573DAF80010CD73DAF8002015740022DAF800104D740121A8
:201AF000DAF80030DA720023DAF800201171DAF800104B71DAF80010C88008818B7205207E
:201B1000DAF800209374DAF800103E4AC874106880473968054608688047396851F8042F97
:201B300000209047D9F80C101C4B0A881878364902430A802846354A136898470C213448EA
:201B50000DF07EFC40460DF077FC0DF071FCBDE8F44F034800784FF4005105F09BBE00BF52
:201B70006E4F0020044F0020B63F0050604E0020084F00202C4E0020E81200503C4E0020ED
:201B9000344E0020700401007B4F00200C4F00206D4F00206B4F0020724F00206C4F002047
:201BB000F04E0020F44E00207C4B002065EA000085EA0000F84E0020FC4E0020602100203F
:201BD00020170020104F0020144F0020184F00201C4F002028210020684E0020004F0020DC
:201BF00064210020804E0020844E0020884E00208C4E0020904E0020411700206821002041
:201C10006C210020B4110020544F0020B8110020F84D00202DE9F84FC04CA178FF2904BFA4
:201C300000200CF001FCA0780CF016FE044604F1680504F190062968086810B10021E183D5
:201C50000CE0A87B002804BFA97E002906D13078002801BF207F0128608CE0832189E08B97
:201C70004118491C618120460DF0DEFB01281EBFAB480178012904D121890020491CE08375
:201C900061814FF6FF77A87E01280DD1AA8B618920890DF0C5FB38B1218960894A1C93B2BE
:201CB00098421BD0A88B0FE03078012816D17288618920890DF0B4FB80B1218960894A1C12
:201CD00093B298420AD0708892B2904206D03818608180B20DF0A0FB3F18E78304F5967953
:201CF00099F8040020B120890021401CE183608104F12E07A87E012811D12189A88B4B1C64
:201D10009BB298420BD160810DF086FB8046B988288C01FB0808204608F0E8FE01E0B7F8B6
:201D30000480B4F81EC022687E4ED2F80CE00CF1010000FB08F340F6C41000FB03F18E44BA
:201D5000C2F80CE03668DFF8E0E13678BEF80080764AB609032E11D1D67BF60748BF4FF08D
:201D700000080BD408F101081FFA88F6012E12BF668AB9F8066006F2DC5600E0668A5E4331
:201D90004FF4C87AB6FBFAF6761C6661AEF80080A3614FF0180894F806A084F820C008FB9A
:201DB0000AFADFF88CC1DCF800E023680EF1080656F80AB0C3F810B094F806A008FB0AFAE3
:201DD000CDF800A0D3F80CB0D4F814A0ABEB0A0ADDF800B046F80BA094F806A008FB0AFA36
:201DF00056F80A609E600EF10C06A37908FB03F30EF10C0EF65C06F0F00646F002060EF85C
:201E100003604FF0000ADCF800E0A6790EF1020308FB06F623F806A0464BA6791B687601C5
:201E300003F1140AD4F814B05AF806A00AEB4B0A03F1140B4BF806A0AD7E022D0BD1A5795E
:201E50006D0103F1140697F800B056F805A000FB0BAA46F805A0BD88D27BA779D60736D597
:201E700008FB07F70EF10802D659A6F5A86A0EF1080646F807A0A77908FB07F7D25927689F
:201E9000511A3961BA6003F11402A1794901575807F5F667575003F11401A279520189589E
:201EB000C9F800106843244AA179156B03EB41162968401AA0F51670F0612049A07903EB82
:201ED00040100B78012B14D10121C17214E003F114027F01D1592A464243A1F5E661A2F5A8
:201EF00016729142DED3082120460DF091FA012011E0916A4A78C272A179DCF8000008FBBB
:201F100001F281182268516007200D490870204608F036FB0020BDE8F28F00BF684E00208B
:201F3000784F0020084F0020842100205C4D0020804E0020844E002070040100734F00206E
:201F50006F4F00202DE9F84F0C46E00788B00BD50CF060FD28B100218160B348006800B19D
:201F7000804784F001005CE1A0070FD50021002306910591049103930291019100910122D8
:201F90003C200DF041FA84F002004AE11D256007A64EA74F40F18A80002107918B46A548B7
:201FB0008178FF2904BF00200CF03EFA386890F8A0000CF051FC80463868C07A98F82691E1
:201FD000022818BF032808F5907A06D106F10D000DF016FA08B906F1070B514648460DF0EA
:201FF0000BFA88B33868807A002818BF012804D1314650460DF0FCF904E05246494630467A
:202010000DF0F2F9FF2834D005FB00F906EB090506225146E81D0CF037FB16F809003968FB
:2020300040F00209E81D07900622887E00F0010088F8260105F1010A386800F1140108F54F
:2020500090700CF021FB14E0514648460DF0C8F978B15246494630460DF0C6F9FF2808D000
:2020700006F10D01454348190DF0CAF908B949F0020908F12C004B460178069142891209F1
:2020900005920122B8F822100491C0880799029140080390CDF804B0CDF800A0002098F81B
:2020B00006100DF0B1F984F00400BAE020060FD50021002306910591049103930291019176
:2020D000009101223B200DF09FF984F08000A8E0E0044BD5F11D06F10D000DF07DF93868A7
:2020F000017A012918BF042931D1C17A02291EBF0329817E01292AD1817E00F11402304616
:202110000DF072F9FF2811D04543354405F10D000DF076F950B9E91D05F10D000DF05CF96B
:2021300038680622E91D14300CF0AEFA3868C07A022818BF03280AD106F10D000DF060F99E
:2021500028B938680622F11D0C300CF09DFA3A4842683A4800784FF480510AF0F1FA10B109
:202170008E2008F09BF884F480505AE0A00505D50CF008FD324901200860FEE7600504D5ED
:2021900007F0B5FB84F480604BE0600405D5812008F084F884F4804043E0A10440D5294D27
:2021B000286810B100200CF03FF9274E4FF0FF3028600DF00DF93168244D51F8202F6846AC
:2021D00090472349234B486A8A6A009001920293C86A0268086A0392ADF810000A6B11788A
:2021F000002904BF5068002805D19068002804BFD068002806D02970506868609168A960F9
:20221000D068E86029463568134A2E6813486B46B0471349086003F06BFC84F4005000E066
:20223000002009B0BDE8F08F204F0020AC450020104F0020684E0020784E00206E4F0020D9
:20225000FC002043044F0020F04E0020684500207814002015EA00002C4D002020200020CD
:20227000EC4E0020BB482DE9F84F0025BA4CB849056094F8E200002800F06581012800F07E
:202290002F81B64E02283CD0032840F05C8151F8250CD4F8B8100029A0F5C060C4F8D40090
:2022B000B8BF49420028B8BF4042814226DA4FF08057D7F8A4014568B4F8BC0030214FF4F5
:2022D0007F42082300903046A847D7F8A4014568B4F8C00004214FF4F802122300903046E3
:2022F000A847D7F8A401B4F8D070456820214FF440620A2330460097A847012584F8D850B9
:202310001CE151F8258C0CF03DFC2F4600B901273946934F38680028FCD0B146012609F11E
:202330000409D9F82CA03E6009B10CF031FCCAF30720C4F8BC000CF025FCAA4600B9B24648
:202350003B68002BFCD0D9F800B0BAF1000F3E6001D00CF01DFCCBF38440C4F8C0000CF01A
:2023700011FCAA4600B9B2463B68002BFCD0D9F81C90BAF1000F3E6001D00CF009FCC9F3A2
:202390008120C4F8D000B8F5C061C4F8B81000F09C8094F8D80068B9C4F8D410D4F8C000F1
:2023B000C4F8C800D4F8BC70C4F8C470D4F8D030C4F8CC30D4F8D400D4F8BC30002854BF8A
:2023D00002226FF0010204F1C8010F6800EB40008018421000EB927207EBA2000860D4F866
:2023F000C810C4F8C43000291CDD1E293CDDD4F8CC0030B93429B4BF15391E21C4F8C81051
:2024100025E02A29BABFD4F8C8000B381E20C4F8C800D4F8C4003F28B4BF401C3F20C4F861
:20243000C4001FE0D4F8CC00032812D011F10B0FC6BFD4F8C8000B30301CC4F8C800D4F818
:20245000C4000028C4BF401E051CC4F8C450032508E011F1150FC6BFD4F8C8001530301CCE
:20247000C4F8C800C4F8CC504FF08057D7F8A401B4F8C43030214FF47F42456837480093B2
:202490000823A847D7F8A40104214FF400321123456832480096A847B4F8C860D7F8A401DC
:2024B00004214FF4F802122345682C480096A847D7F8A40120214FF440620A23B4F8CC6030
:2024D000456826480096A84701E084F8D85040F2FF50404502D8801C40452FD2082030E08D
:2024F00051F8251C1F4F4BF2F5204843060A3868C0F3814001280CD11B48006800688047D3
:202510000AF022FB0CF04AFB3111C010484306EBE03694F8E50030B91448006820F07F40C2
:202530003618760801E084F8E5501148310C0660012741600F4D8760287808B90B2000E0B9
:20255000052084F8E40003F043F9BDE8F88FC0462D400C402C500C409810002000A00C4050
:2025700000800C40B43F0050EC010010102009403C600C40F50201002DE9F84FB34D6968B8
:2025900084B0019121B905B0BDE8F04F0CF01CBF0978DFF8BC82AF4EDFF8BC92DFF8BCA22E
:2025B00001291CBF0229042946F2A81741F64C5B05D0402918BF802900F096803CE10CF0FC
:2025D0001DFB0028FAD00198007804F023F90090446814B900200BF027FF9AF801000028BB
:2025F0005CD000F043F90CF037F902900168009801914F6808F00EFD022825D000990A782E
:20261000012ADBD196490A68137A19F80310317018B90CF0D5FE5844A0602069C17E01F03B
:20263000EF01C1762069C17E41F08001C1762069C17E01F0F00141F00201C1762269B968F1
:2026500088484118D1614BE001980178802911D10820854930700A78012A03D09AF801009E
:20267000022801DB38690CE0D8F828003A690178D1720DE07C49072030700A783869012A99
:2026900002D10121C17203E0D8F828104A78C2720298817901988AF80210C8E000980028F8
:2026B0008CD00199009A0078914205D101281CBF00200BF0B9FE15E0012840F0BD80684848
:2026D00001680A7A19F8020030700CF079FE3918A0680CF071FE18B90CF072FE5844A0603A
:2026F0000120A8700098A2E09AF8010000287AD000F0BCF80CF0B0F8044620680290476817
:202710009AF802000CF0A8F803900CF07DFA10F0070F3DD0A87804F07DF8019041680198F4
:202730000091029908F076FC022831D001990A78012A2AD14A490A68137A19F8031031702F
:2027500028B90CF03DFE83440098C0F808B000980069C17E01F0EF01C17600980069C17EEA
:2027700041F08001C17600980069C17E01F0F00141F00201C176009AB9683A4841181069C4
:20279000C16101210198A97051E000200BF04CFE0398A04225D0029833490278802A12D10E
:2027B000082030700978012903D09AF80100022803DB38690121C17210E0D8F828003A69A7
:2027D0000178D1720AE0072030700978386901290EBF0122D8F828104A78C272A0798AF8A7
:2027F0000200029823E00CF00FFA10F0070F29D0A87804F00FF804462078D4F804800128A0
:2028100020D117490868027A19F8021031700CF0D7FD3918D8F808000CF0CEFD20B90CF012
:20283000CFFD5844C8F808000120A870204605B0BDE8F04F05F07CBC05B0BDE8F04F00203A
:202850000BF0F2BD05B0BDE8F08F00BF28210020700401006F4F0020289A0110684E0020C1
:20287000104F0020F0D8FFFF734F00202DE9FE4FB24C617811B900200BF0D6FD0CF0A0FD96
:202890004FF00008074607F6C417C246AC4DDFF8B49228E050460BF0DFFF06467079F0B151
:2028B0002968B07901F80800394608F101005FFA80F830460CF07CFD30680178402902BFDD
:2028D00006F182000178012902BF41887289914205D1B169C088411830460AF07FFA0AF1FF
:2028F00001005FFA80FA99F800008245D2DB6178884505D000200BF097FD82200CF054FDD6
:202910006078012840F0F180002701E07F1CFFB299F80000874280F2E28038460BF09CFF6F
:20293000064670790028F1D02968B0790A7890421CBF00200BF078FDB079FDE0286810F852
:2029500009000BF089FF00684268DAF808109068814204BF3E4609F1010900F0D480D6E0DF
:20297000286890F800B001224FF4C0710FE0636803F5AD76835C01FB03F901FB0BFE36F809
:2029900009C036F80E60B44538BF9B46521CFBB29A42ECDB4FF6FF700CF002FD064658469A
:2029B0000BF05AFF68490068D0F804A00868D94630F8192060684FF4C07300F10E0103FB02
:2029D00009F3C85AB2EBD00F52D2720840F6C4104243009200275D4A0190029217E0584606
:2029F0000BF03AFF01680A78802A03D1DAF81030009A5A610978402908D1029980790A68FA
:202A100002EB4011009800F5A060C8617F1C47452EDA2868C05D8345F8D001464FF4C07389
:202A3000594363685A1803F5AD73D289595A53088B4202D2521A9045E8DA0BF00DFF016818
:202A50004A68019B9168DAF808207008A1F6C41103FB00200CF0B0FC0028C0D03A480068D9
:202A700030F81910491C20F81910286810F807B0296808780BF0F0FE0026006847684FF486
:202A9000C079464551DA2868805D0BF0E5FE0068296842688B5D606809FB03F3034403F164
:202AB0008201087830B15889B1F802C0401C80B2604508DA887B01280ED15889098A401CE6
:202AD00080B2884208DB6EB3B968906801F5C241A8310CF071FC28B3761CF6B2D1E70020A5
:202AF0000BF0A2FC82200CF05FFC617828680CF053FC286800780BF0AFFE00260068D0F87A
:202B100004A04FF00109771CC145FFF617AFF6B2002E1CBFF8B200287FF422AF286890F885
:202B300000B037E7296811F806B007490A6800205B4622F813005846BDE8FE8F684E002011
:202B5000004F00207B4F002064210020844E00202DE9F84FDFF8C0B20F460546F80B80F0BC
:202B70000B81A74EDFF89082B80F80F0BD80B80880F0B1803809C0F032819D4801780909F2
:202B900080F0A480007830F07F0040F09F80684606F0CAFA012803D10098002800F0968000
:202BB00094480078002840F0918001240025E8B20BF048FE48B1837A3BB1847290F90900B9
:202BD00004FA00F0C0B20AF097F96D1C032DEED345464FF0030A05F1AC0085F810A00CF0DF
:202BF000D7F8DFF82492002109F11402884610681160824952F8080C05F1340042F8088C60
:202C100042460CF0D1F83068006B8047AA68A969801A000BC0F1FF328A422CBF01444FF0A7
:202C3000FF31A961287F20B1E868A969B1EBC02F1ED90BF0D9F9414600B12146A9B171486F
:202C500040F60901018046464680427B64F303024273027B66F30302027346604B46DE61BD
:202C70001860418811F4406FFBD02C774146A9616649086820F0020040F400700860644A65
:202C900042F804AC41F23006966014605023936014604FF4CA6696601460022042F80C4CFC
:202CB00044460C600AF0ACFA112005F085F9287818B9686838300CF083F8687F18B16C7717
:202CD00005200AF09DFA534868612C7408F000F927F0080783E004F0CFF940467430006862
:202CF00008B927F002077AE00CF058F834468146606D0068014604208847C8B1287CB8B107
:202D10004046083006689EB12068EC68006B8047801BE860010BE960A14202D209194908B8
:202D3000E96040F6C41088422CBFB1F5FA7FE86048460CF02DFB0AF0C3F890B1A8696FF4F8
:202D5000807100224FF0007304462846A04740466C300068002808BF47F0020701D008F07D
:202D7000B7F8686900214FF0806304460A462846A04727F0005732E00CF010F859460E68F8
:202D90004EB306F1280106C90A234FF0E0450B40154008BF002B1ED106F1280191E8300058
:202DB00006F1280393E8060006F12803AA43A14383E806000CF0ECFAB16871B1002D08BFEB
:202DD000002C0AD03069B6F93C10B2682B4616462246B04701E00CF0DBFA27F4804727B197
:202DF0005846394650300BF0F3FFBDE8F88FC04686210020A119002008180020D1B30000A2
:202E10008C010010E420002000100440000004600C410440B97C0000881800202DE9FE4F40
:202E3000DFF84492914E99F80000914A914D92490D2873D8DFE810F016010E000E000E0049
:202E50000E000E010E0191000E01CD00CD00EB00EB00F200326041F2044A8849DFF82082D7
:202E70004A88884C52451FBF4B8B53454B8E53454FF4A0572DD1DFF810B2DBF8000000683C
:202E900000F108010079032816D1D1F80E0000281CBF088B00280FD091F8220010F0E00F8F
:202EB0000AD101F11E000CF06FFA012804D1A5F800A07648306084E099F8001002290CBF2E
:202ED00044462F8034600020DBF800100A68107177E0002A2A8039D0521E3CD0521E35D0FA
:202EF00040F2FE33D21A1AD0121F012A1DD94FF47F73D21A1BD04FF44063D21A0FD0921ECA
:202F1000012A0CD9121F0AD0521E012A0DD940F2F933D21A012A19D9121F08D09AE00228F1
:202F300014BF2F80444634604BE0594CFBE759480268137A012B05D141F20240488048838D
:202F50004886F0E74F804F834F86ECE700200BF06BFA832082E08F2080E04F488178FF2927
:202F70000CD0326018204D4A414310684C4A831C40F204445B5A2B801B1B012B72D94FF409
:202F90007F741B1B0FD04FF440641B1B032B84BF5B1F012B0BD99B1E012B63D940F2FD347D
:202FB0001B1B08D103E0801C41F201434352326004F0ACFA05E000200BF036FA85200CF06A
:202FD000F3F903B0BDE8F04F36480078012104F061BC40F204424888288090421CBF41F265
:202FF000084290423ED041F60402904211D12E4C2E4B0020CDE9004002222D4C2D482468FF
:20301000006854F8086FB0472B4908802AE04888288000200BF008FA85201FE048882880C7
:2030300002280DD940F20442801A1BD040F6FC72801A05D0083815D04FF47F72801AE8D1B4
:20305000887B801CC2B2B52AA8BF662088730020488007E000200BF0E7F98420BDE8FE4F26
:203070000CF0A2B9BDE8F78F6F4F0020204F002071ED0000504F0020CC4C0020204A002072
:20309000B1540110615A0110F44B002059550110755B0110104F0020684E0020804E0020FC
:2030B000313901106E4F00200200008079D20000F04E0020EC4E0020424F00202DE9FC411F
:2030D000A0F2013714468846022F40F233819B4E9C493F1F0F2F04D9143F4BD0BF1E1CD059
:2030F00011E0DFE817F0CF00C9000E01FB00C100B9002701AF00A700100010009D008F001B
:203110007F00740065002D2880F21481B8F1020F40F010818849238808E1B8F1010F40F022
:203130000981F078012800F00581324620781179107181B9002800F0FD805078012800F023
:20315000B580042800F0B280062800F0AF80052840F0F080AAE02078002840F0EB80507815
:20317000032800F0B180072800F0AE80052840F0E180A9E0B8F1010F40F0DC802078012859
:2031900040F0D88006F1EC000BF034FE002840F0D1803446002004F13A0105F0EDF9002811
:2031B00040F0C88004F1C800FDF77EFDBDE8FC81B8F1020F40F0BE8020880A28C0F2BA804B
:2031D000B0F5486F00F3B6800E46B61C17E0B8F1020F40F0AF802088B0F5FA7F80F2AA80C2
:2031F0000E460CE0B8F1020F40F0A48020880628C0F2A080B0F5486F00F39C803E3630803A
:20321000BDE8FC81B8F1020F40F0948020880628C0F29080B0F5486F00F38C803C36EEE744
:20323000B8F1010F40F086802078062880F28280454E0EE0B8F1010F7CD12078042879DAB7
:203250000A3606E0B8F1010F74D12078082871DA09363070BDE8FC81B8F1010F6AD120789A
:20327000042867DA0836F4E7B8F1010F62D1207804285FDCF61DECE7B8F1020F5AD120885A
:203290000E36BCE7B8F1010F54D13079012851D032462078D178D07071B900284AD0507899
:2032B000012803D0042818BF052843D190690121FDF7FEFCBDE8FC81207800283AD1507800
:2032D000022818BF052835D110780AF0C3FA1C490246102000F0E4FCBDE8FC8106F183051D
:2032F00000211F22284607F0D5F821464246284605F0B6FF44463078B4710AF0ABFA00230A
:2033100011E006F1640500211F22284607F0C2F821464246284605F0A3FF444630787471C0
:203330000AF098FA01230094084901950246102000F0B6FCBDE8FC81E1D20000C00700207C
:203350009945011000080020FA070020094501102DE9F04F8246DAF80070DAF804600C46DF
:203370005FEA0208ADF11C0D14BF00214FF0FF31DFF8409248460BF0D2FA002818BF0B2098
:2033900040F0158100258F488C4905708A48FC6052460BF009FD317B27200BF007FDB8F1AF
:2033B000010F07D0657002200AF0DAF806200AF0D7F801E0012060702078012840F2AA8075
:2033D000801E012868D9801E012833D9801E012800F2DE800BF0E2FC83464FF0805000F545
:2033F000EE77D0F8DC01A378466A009321782846062908BF0120019001200290A068228A3F
:20341000E1686368B047814658460BF0C1FFB9F1000F40F0BF80B8F1000F02D00BF004F9C7
:2034300002E0504609F06EFF002800F0A3803868806A2AE00BF0B2FC83464FF0805000F559
:20345000EE77D0F8DC01012306680093A168A27860682478AC46042C08BF9C466346B0473B
:20347000814658460BF094FFB9F1000F40F09280B8F1000F02D00BF0D7F802E0504609F089
:2034900041FF002876D03868406880474C49C1F8B0510D6081467DE00BF080FC83464FF000
:2034B000805000F5EE77D0F8DC01E38A86690093E0680190208B0290A0780390207D04904C
:2034D0000121059122782846022A08BF081CE1786268A368B047814658460BF059FFB9F17E
:2034F000000F57D1B8F1000F02D00BF09DF802E0504609F007FF00283CD03868006A8047EF
:203510005FEA000946D1E078A168E28A236906F0BDFCBFE70BF042FC83464FF0805000F57E
:20353000EE76D0F8DC01E38AC7680093E0680190208B0290A0780390207D294604900120C1
:203550000590257805B9014608466268A368E178B847814658460BF01BFFB9F1000F19D18C
:20357000B8F1000F02D00BF05FF802E0504609F0C9FE08B914201AE03068406980475FEAE7
:20359000000907D1306802692169E078904781E74FF0FF39B8F1010F05D0022009F030FEC8
:2035B000062009F02DFE03480BF00AFC484607B0BDE8F08F3813002070130020CDDB000046
:2035D000504502408C210020FEB5954E954F144602460025A2F58062182A1AD8DFE812F080
:2035F0001601100109010101FA00F400ED00E8001900CC00C500BE00B500AA0019001900CB
:2036100080006F00680054004C00420039002C0024002D2880F28C80022940F089802188F8
:2036300009F056FE0546F9E0012940F0F680002C00F0F3801136BEE0102940F0EE80002CC2
:2036500000F0EB8030465030102221460BF01CF8E4E0012940F0E180002C00F0DE803146F1
:203670008E1DA8E0262940F0D880002C00F0D58006F160002622E8E7012940F0CE80002C7D
:2036900000F0CB80761D96E0602900D13CB9012940F0C380002C00F0C0800D368BE006F1E9
:2036B0008600214660220AF0EFFF01207073B5E0012940F0B28020780BF062FEAEE00129D3
:2036D00040F0AB802078022800F3A7800C3630702078022814BF281C01200BF04DFE9DE004
:2036F000072940F09A80611C684606220AF0C6FE207869462A4604F031FE04460A2C17DAE4
:203710000BF036FE70B9204602F0BCFE3C462078002847D16088C0F5805080B2B0F54D7FC5
:2037300040DA3AE03246012002F12C06305575E0022573E0012970D1B07B21780028B173B8
:203750006CD1207801282DD068E0012965D12478072C62DB102C60DC0B3648E001295CD172
:2037700024780A2C59DA093641E0012955D12478022C52DA08363AE000294ED10BF0F8FDFE
:2037900098B90BF015F83C46207858B96088C0F5805080B2B0F54D7F04DA0BF073F965706B
:2037B00003F0CCF808F0EEFA38E001240F361EE0012932D10A36247819E001292DD124781C
:2037D000022C2ADAF61D12E0102926D1334603F1400039E7012920D12478022C1DDA361D76
:2037F00005E0012919D12478042C16DCF61C347014E0012911D12478022C0EDAB61CF6E7EB
:2038100002290AD120881436308007E0012904D12478022CD8BF761CE9DD18252846FEBDEB
:20383000D40C0020E01700202DE9F04385B011F8017B0446082F04F1FD0004F1FC0804F1FD
:20385000760504F5A076844A844BDFF8149213D0092F21D00F2F2FD0112F01BF28780128A2
:203870006878102840F0D5800A78327648787076012184F83D11EBE00025521C4E5D5F5D1A
:203890003E434E55575D3E4046556D1C082DF5DB204607F089FB74E00024571C0D5D1E5DE8
:2038B00035430D553A5D15400555641C082CF5DB022088F80000CBE098F80100820704D415
:2038D00010F0110F57D01A2266E008784A7800EB02203080CA78887800EB022070804A790E
:2038F000087900EB0220B080CA79887900EB0220F080087A30724A7A887A02EB002272814D
:20391000C87A0A7B00EB0220B0818A7B487B00EB0220F0810A7CC87B00EB022030828A7CBE
:20393000487C00EB022070820A7DC87C00EB0220B082487D897D00EB0120F0824948017857
:203950008A0658BF1A2212D504F5A670049071890391307A029021890191F0880090B388A1
:2039700072883188204606F0A7FFE0B11E2298F80100410710D40F2088F8150020460BF0CF
:20399000F3FC002864D199F8000005B0BDE8F0434FF4804103F07EBF204605B0BDE8F04386
:2039B0000F210BF0DDBC7088A882B188E9820221F0882883297400206882A18EA88AC91D39
:2039D000E981618EB0EB510F02BFE88AA18E884202BF288BE18EB0EB111F18D028780128F8
:2039F00004BF68780F2805D0687918B10F21A972FE2127E0FC2120460BF0AEFCF0880090BD
:203A1000B38872883188A0790BF0A2FC20E0102118E0491E20460BF097FC032F18D1A87837
:203A3000042818BF0D2813D16E78142E18BF0E2E0ED12F7820460BF083FC012F06BFAE72A4
:203A5000FD213146204605B0BDE8F0430BF084BC05B0BDE8F08300BFEC4D0020502100201D
:203A70006E4F0020144E002010B50B7884074CBF43F0020303F0FD0304064CBF43F0800303
:203A900003F07F0304074CBF43F0080303F0F70384064CBF43F0200303F0DF0310F0AA0FE7
:203AB0000B7003D0107840F00C0003E018B9107800F0F300107010BD2DE9F8430D460027AD
:203AD0002878022814461E4667D1696808784978DDF8208000EB012080B25FEA08021CBF23
:203AF000B0F5285F0B205BD14FF42851401A08D0401E21D0401E2FD0401E25D0401E31D0E7
:203B10004BE0DDF82490E8680BF070F980B2A0EB08024A45BCBFA0EB08001FFA80F909EB43
:203B30000800162806DAA6F800904A46E86800EB08010DE00D2732E0E8680088022131806E
:203B50002070000A60702AE0062030800622E96820460AF099FD22E001203080E9680A78F6
:203B700022701CE0E868B0B1082131800288227003881B0A63704188A1704288120AE2706B
:203B9000818821718288120A6271C188A171C088000AE07103E0308001E0378001273846B2
:203BB000BDE8F2832DE9F0470F46814638780024022890461D466DD17868089E0178407846
:203BD000DFF8D8A001EB002189B24FF42852891A06D0491E29D0491E4ED0491E39D059E07A
:203BF000F8680BF003F980B2B04204D3A919162903DB0D244FE007244DE0FB682A46414672
:203C100098190AF041FDAD19F868ADB2C5F11602002140190BF0E8F8DAF8000000281CBF2E
:203C30000268002A37D0002123E08EBB022DE0D198F8000098F80110FA6800EB012010805D
:203C5000DAF8000000281CBF0268002A23D001210FE0EEB9062DCCD1F868062241460AF067
:203C700013FDDAF8000000281CBF0268002A12D00321484690470EE056B9012DB9D198F80B
:203C90000000002813BF0128F9680870802402E00B2400E001242046BDE8F0877421002027
:203CB0000FB42DE9F04F09AF8246ADF11C0D0AF0E7FF391D30F0010021F0030101F1040132
:203CD00000F0FB8004911420ADF80C0000260196FF258DF80E507C6805940BF02DFB044641
:203CF0000AF0CEFFDFF8E09130F0010008BF2C1C1FD00BF01DFB05460BF016FBA9B24A4631
:203D100080B261F30F08062160F31F48304632F80C7F57B153681B689C4204D0491E00F19A
:203D30000100F4D101E0C4B200E0FF2440460AF0F2FC504608F0F4FB0146FF2904D02046BF
:203D5000032204AB06F0EAF90BF0F6FA07F078FD0546304600900AF093FF30F0010000F061
:203D7000AB80002D00F0A880584FDFF864B13A68002431462346584605F06EFD06460BF045
:203D9000CFFA3A68824600212346584605F064FD04460098B2444FF0010906900BE0069822
:203DB00010B10C3807F08EFE0498006886E0FEE701466EE00446686800214FF00052234652
:203DD000FCF7A2FC002852D00BF0B6FA07F038FD061C40D00BF0ACFA83460BF0A5FAB768CC
:203DF0001FFA8BF180B261F30F08002F60F31F4808BF002708D057F80C1CB160002047F8EB
:203E10000C0CFF2307F8023C40460AF084FC381C21D010F8081C062914DA2B4A0846810049
:203E30000C3201EBC001565A66B14FF6F870B04208D03A460AF00CFF00281CBF06924FF0EA
:203E5000000914D16846394607F068FE68684FF00051FCF72DFFB4F1FF3FACD0002CAAD056
:203E70000BF05EFABAEB000001D08442A2D20AF05DFA009F0BF05CFA82460BF055FA08359F
:203E90001FFA8AF180B261F30F0860F31F4847B1394651F80C0C00288AD1286841F80C0CEB
:203EB0002F6040460AF037FCB9F1010F3FF47FAFB9F1000F3FF473AFFEE7FEE707B0BDE861
:203ED000F04F04B07047C046F411002034040100404B4C002DE9FE4F05467B4800240068F0
:203EF0000094C00905D37948007810B9202009F03DFA012D40F0E280DFF80092D9F8DC0035
:203F1000012840F0D8800220C9F8DC000AF014FB012009F02BFA5FEA000805D00120C9F8D1
:203F3000DC000AF015FBCBE00AF04EFFA34602906748684DC0F800B0A86A016801208847E7
:203F5000012804D1584607F09BF8012000906248624FC0F800B0386811200AF02BFE00B112
:203F7000012410200AF026FE08B144F002040F200AF020FE08B144F004040B200AF01AFE52
:203F900020B12868564E016B308888470A200AF011FE20B12868534E016B30888847524857
:203FB000012606602868816944F0200088474F4806600AF0F9FD00F001010191400814D228
:203FD000286A81684A4888478246BAF1040FF7D0BAF1010F04D1286A426845480321904754
:203FF0004449086820F003000860584600F088F82B683868986B8047019801280CD0BAF1E5
:20401000010F04D1286A42683948314690473949086840F0030008602F48066028684169FC
:20403000204688470B200AF0C5FD20B128682C4BC16A188888470A200AF0BCFD20B12868A4
:20405000284BC16A18888847274806600322C9F8DC20264BC3F800B02868416B204688473F
:204070000128F9D13868042009F080F90446184806603868144800688009FBD3009801287B
:2040900002D1304606F0FCFF0AF082FD082009F06DF907460298C9F8DC600BF03DF9164863
:2040B000008806F0B3FC0AF053FA57EA040018BF4FF0FF3804E06FF0040801E06FF0010852
:2040D0004046BDE8FE8FC04614100940801100200C400940B8010010000222432C2009409A
:2040F0008AFF000086FF000028200860800104430040034024220840F0020100981000205E
:204110002DE9F84FDFF804B20746ABF13500DFF8F0810068800880F0E280754800680068F0
:2041300080477E490831D1F8009000254FEA29715FEA995201F101010AD2C0F13E0210F161
:204150000A0F4FEAE202D8BF08229142B8BF111C684BD3F87C21C2F30462162AA8BF203AAA
:204170001B68C3F30443162BA8BF203B9A465218162A05DA12F10A0FB8BF6FF0090200E066
:2041900015225D4B5D4E02F01F0141F4F8511980316811F0030F18BF0125C90828BF45F0C6
:2041B00002050FB145F00405434693F90710411A052904DA9979A94208BF99886FD0DFF85C
:2041D00044E10F28A0F10F0829DB08EB0011A1F1F0084FEA28210091072984BF07210091FA
:2041F000062988BF06215EF821600424774604EB81043C594FEA950CA41BEE0804F0FF01CA
:2042100024BFC4F3072631446F08AE0824BFC4F3074631446E0828BF01EB146104E0002106
:204230004FEA950C6F080091009C5EF824E05FEA5C060EF0FF0424BFCEF3072634447E081B
:2042500024BFCEF3074634446E0828BF04EB1E64009E89B2A8EB06267143803104EB1124F6
:20427000AAEB02010029D8BF0121342209F0FF074A4391B24FF6FF727943B1FBF4F18A42C0
:2042900038BF111C802889B2998005DA10F1800FB8BF6FF07F0000E07F20D8719D711A48F2
:2042B00000681F2918604FF0000008D340F2FF128A4206D24908401C8A42FBD301E01F215D
:2042D0009980134F0F39090940EAC10047EA0001CBF8FB1F0026CBF8FF6FBDE8F88F0D4926
:2042F0000D4F434608200F609B1D1870BDE8F88FEC0100103C1100506E6208402422084086
:20431000582100209C130050082009403500094000E7A48030100940FDFDA400AC3F005099
:204330002DE9F04F044675488A46016894461F46BAF1000FADF13C0D4DD0BCF1000F4AD005
:204350009AF8002001209040014244D0BCF80000B0F5C15F32D1DCF81430DCF81820684803
:20437000DCF81C104FF0030E0DF128080B93DFF894B10C9200680D91C0F3036958F8046F6F
:20439000CEB10021351F05200B4655F8042FB2F1FF3F10D0934506D0401E01F1040103F16B
:2043B0000103F2D107E0052B05DA705820F4702040EA09407050BEF1010EDFD1C4F804A0C3
:2043D000C4F808C00AF0EAFC4F4D8046287820B140460AF0DDFF00208DE002F085F94B49A9
:2043F000086840F00200086007A80AF0F3FA002605F1D00007AA4649099608F0C3FB4549FE
:2044100005F5827007AA08F0BDFB07A80AF0B2FAFF2105F1340007AB3F4A0891192108F09A
:2044300055FB3E4A05F150001A2107AB08F04EFB3B49324605F18800134607F07BFD39495C
:20445000324605F1AC00134607F074FD364A05F120000421334609F0D9FB0E2004F032F824
:2044700005F174000AF0D0F905F16C000AF0CCF92E74072085F898012E77AE616E7705233E
:20449000AE602B49EB602A786961501C2870274B1E7040460AF07CFFB1464FB92548B0E8D0
:2044B0008C106946A1E88C100DC86F4681E80D0038682060398A6182012060747B6813B912
:2044D00040F6C4130646E3601B48A06126746061F86800B1A061B86800B1606158224946C4
:2044F00004F1200005F0D6FF04F13800494609F009FA20466C600FB0BDE8F08FD4210840C3
:20451000541300500200F844081800200020094091E50000ED7B0000D1B3000035B20000A4
:20453000D9DF000091E30000C1C1000086210020B97C000090020100879D00002DE9F04FB5
:2045500005468048066800680F461C469246C4F399018900ADF12C0D0A010021803205F04F
:2045700099FFDFF8C891A9F1880002466E48016830469047A3088046610801979F1C21F04F
:204590000101F819009506EB80000390091DCDF808A07818434506EB800206EB870B384442
:2045B000049206EB80000690C4F39C004FEA800000F1080007EB400000EB070206EB8202AE
:2045D0000A9224F0030202F1080200EB020506EB85053A44059506EB82050A4407953A44B4
:2045F00006EB8202089206EB80020992084406EB800A384406EB800518BF6FF0010040F06E
:204610008F8009F16800024641463046904700233CB10199264611F8010B761E40EA03030E
:20463000F9D1002B08BF01207AD000263CB10299234611F8010B5B1E40EA0606F9D1002E70
:2046500008BF02206CD001995846C84703980299C847009881680498C8473548049A5946B3
:2046700081462846C847012803D14FEA88042E590EB1032054E0BE0028460021324605F0CD
:2046900009FF0399049A2846C847012801D12F590FB1042044E0274F274C069859463A461A
:2046B000A047079803993A46A0470699089827460A46B84709980899069AB8470A98069944
:2046D0001E4C2246B84728460021282205F0E2FE1B4809990A9A81462846C847203428469C
:2046F00022460146C847079950460A46B84705980021324605F0CEFE5FFA88F45046002CD9
:204710000CBF01225FFA88F200216B5C445CA34218BF052004D1491C521EC9B2F5D1002054
:204730000BB0BDE8F08FC0468C4F0020B9DB0010C9DE0010DC150020F9E000107C000100B7
:20475000C9E60010884F00202DE9F0410446804DA178A869ADF1180D891F00F0F280C91E57
:2047700000F0DD80491E5FD0491E48D0C91E3CD0481E40F0E980287A697AB8B968780028D7
:2047900031D0A0880AF0C4FD071C00F0DD80A07A40080FD3787968B1E168890A0AD2B91DD9
:2047B00001AA03F0DBFD0A2804D10321A0880AF0ABFDC9E0287B022802D1A07A0009F4D34B
:2047D000A088797904F1080201F0CAF8A869002800F0BA804368002B00F0B68000210A462D
:2047F000A0889847B0E00521E0E7002800F0AC804368002B00F0A88062780221F0E70AF025
:2048100011F9002800F0A080A86950B1076847B1206900906189227B637BE01C3C46A047EA
:2048300092E060890121C2E767784FF00008002F66D1A179490863D3EF69002F60D101A8B4
:2048500041460E2205F026FEA0880AF061FD071C7AD0606940B97879B91D06228DF80A004B
:2048700001A809F011FF19E06669307C062206F111018DF80A0001A809F006FF07F10C0097
:20489000B91D062209F000FFB81D062206F1110109F0FAFE307C40F002007871A079C00873
:2048B00039BF387900F0FD00387940F002003871A079000939BF387900F0DF00387940F04B
:2048D00020003871A1799DF81120C1F3800010438DF81100080905D39DF8110040F008003B
:2048F0008DF8110001A8214600F020FB28B92878022102F0CFFF404627E0A8694FF0150899
:2049100010B3436803B3A088627801219847B8F1000F19D0A86943680321424660E7E078B8
:20493000211D002203F01AFD0A280DDA410001EB800004F10C0225300421C0B202F0A8FAB4
:2049500002E0A08805F0F2FF012006B0BDE8F081D40C00202DE9FE4F0E468246307AC1067A
:2049700093461F464FF000090CD558460AF0C8FC030000F0E8800A223146504698475FEAA8
:2049900000094DD130780C9D0D9CDDF8388002281AD170680178407801EB002189B24FF4B0
:2049B0002052891A012910D9891E3AD0491E14D0FD397AD0491E00F08180491E6DD0491EE0
:2049D00073D0491E00F09580ABE0002C2AD1F068017829800278416887E0002C22D1012022
:2049F0002880F1680A783A7000217089401C80B20AF082FC298860B10278921C511829805E
:204A1000418979704289120ABA7041680278F81C6CE0091D298004220021781C0AF0E4F9BE
:204A300093E0002C66D1F0680688042129803E70320A7A700DF1020130460AF05DFC04003A
:204A500021D0D4F80C80BDF802204FF6FF766B4631460AF04DFC40B9237862683C480221FC
:204A70000AF042FC08B9ADF8006098F8000002280BD1D8F804100222381D09F005FE288889
:204A9000801C288001E0ADF80060BDF80000B870BDF80010090AF97057E0002C2AD1F06808
:204AB0000168504609F05EFF02E01CBBF0680088022129803870000A787046E0F0680AF01A
:204AD00095F980B2A042B8BF4FF007093DDB844208BF002205D008EB04028242B4BF42460A
:204AF000021B2A8092B2F0680119384609F0CCFD2BE014B14FF00B0927E0F0680721298096
:204B100002783A7043787B704188B9704288120AFA7001793971C2887A71C088000AB871A5
:204B300013E058460AF0DCFB5FEA00090BD00F980290CDF8048000942B463A4631465046C2
:204B5000C847814601E04FF00E094846BDE8FE8FC40001002DE9F04F0646880FADF1140DBC
:204B7000C0F0D7806C4F381D006841688D68CC68486800B18047B946694F002D08BF002CD5
:204B90000DD038461C300368002BFCD00021016005B1A84704B1A047604809F023F83C46FB
:204BB00000256049E5616048216040F60A0CA0F800C04580017B65F303010173AA46C0F84B
:204BD00004A0417B4FF0010B6BF303014173B268737C558011888646A1F60201C9B141F27A
:204BF0001E07C91B15D041F6E677C91B012920D8507E012B65F38200507606D0108B20F4FE
:204C10007C7040F43470108313E0108B65F30910F9E7507C012B65F38200507405D0108A49
:204C300020F47C7040F4347002E0108A65F309101082D6F8088075746046474600E01F4656
:204C50007B6813B119888842F9D1C7F804E0797B65F303017973D9F86C303BB1D96809885E
:204C7000C21F8A421ED0801F88421BD0338CDBB1C6F824A006F12000458096F82C1065F36A
:204C9000030186F82C1096F82D106BF3030186F82D10CEF804009EF80D0065F303008EF810
:204CB0000D0001E0C9F808502048036882680192C168406B0093102220F0784040F080502C
:204CD00003901B480291694604F0CAFAE0690028FCD01848C9F8140099F81D00E56178B93D
:204CF00015480068006801465846884701280DD0787B6BF303007873104EC9F8146005E006
:204D100007F004FE0028FBD00AF056F8E561C4F8008005B0BDE8F08F0818002001000706A6
:204D30000010044001010E04E42000204C13005018000021612B0000E00100101DB600009F
:204D5000F0B5754C774E6568401EADF12C0D70D0401E6BA76BD0801E52D0401E41D0401E9E
:204D700004D0401E36D0401E32D02DE004F17000FBF7DEFC69491020FEF792FF6849C5B2BD
:204D900001AB10206A1EFEF78BFF48B9009560680221002248A308F0D2FE0DF106000DE0D9
:204DB0000C363046016806AF39608088B8806068002245A3022108F0C2FE3846656807F045
:204DD00059F90321034607E028460221002214E040A300E041A302212846002208F0AFFE77
:204DF00067E0142008F062FF60680221002241A308F0A5FE60680321052209F0BDFE58E044
:204E1000012504F170008DF82950FBF74DFF142008F04CFF60680321052209F0ADFE40F25B
:204E300005300DF129022946FEF748F965683B46D1E731460A6808A8026089888180002626
:204E50008DF808609DF824708DF807609DF821108DF80A709DF825308DF805109DF8222020
:204E70008DF80B309DF820008DF806209DF823108DF8040001AF8DF809102B497868486067
:204E90003A680A6008A807F0F5F8034601213246284608F054FE606802211CA3324608F0AD
:204EB0004EFE012140F205300AAA8DF82810FEF705F90BB0F0BDC0464E756D20436F6E6E5D
:204ED000733A20256400C046436F6E6E656374656400C0464572726F7200C046436F6E6E2F
:204EF0006563746564204164766572746973696E6700C04654696D6564204F757400C046A6
:204F10004164766572746973696E6700496E697469616C697A65640008020020F17F0110E0
:204F3000097F0110E80700200F0B00202DE9F04F734CDFF8C8A1E56988468146ADF1140D89
:204F5000002D4CD1B9F1000F5ED0B8F1000F5BD008F09EFD06460A2E267422DAD8F814702C
:204F7000002F3DD0700010216A4600EB86002330C0B209F093F990B950460778FF21102229
:204F9000684609F0BFFA50B93FB999F80600494600F001000AF0A0F901E00120A074E56992
:204FB0001DE004F1E60B0A2700265846FF21062209F0A8FA88B97F1E0BF10E0B06F1010635
:204FD000F3D1607C002804BF0A2020741CD094F83660304601F056FAE569267400E0267C49
:204FF0000A2E11DA002D4DD0AA68002A3ED12A69002A2FD16A690ABBEA683AB9A07B08B17B
:2050100008F09AF909F03BF9012074E07000102100EB86002430C0B201F03AFFE769217C64
:20503000FA68480000EB8100103225300421C0B201F02EFFE1690020C8605BE07000102190
:2050500000EB86002330C0B201F022FFE169002048614FE070001C2100EB86002230C0B2D4
:2050700001F016FFE1690020086143E070001C2100EB86002130C0B201F00AFFE1690020DF
:20509000886037E070000E214A4600EB86002030C0B201F0FDFE207C07F0D6F86846FF2184
:2050B000102205F0F7F9207C10216A467030C0B201F0EEFE207C0101A1EB400109190E20A2
:2050D000E63119F8012B401E01F8012BF9D1D8F814206AB15046007840B9107C02F1110168
:2050F000002300F001000AF0F3F801E00120A074C4F81C80002005B0BDE8F08F5A4F002077
:20511000D40C00207CB56D4D044668680E4628B94FF00040002106F037FB686000213CA3B5
:205130000A4608F00CFD20463DA3801E08D0801E61D0401E4CD0401E37D0401E22D00EE066
:205150006868012E05D000210A4608F0F8FC37A357E000210A4608F0F2FC39A351E06868C9
:2051700000210A4608F0EBFC6868022100223AA308F0E5FC01208DF803009DF8030000289B
:20519000FBD17CBD686800210A4608F0D8FC68680221002236A308F0D2FC01208DF8020091
:2051B0009DF802000028FBD17CBD686800210A4608F0C5FC68680221002232A308F0BFFC84
:2051D00001208DF801009DF801000028FBD17CBD686800210A4608F0B2FC68680221002259
:2051F0002DA308F0ACFC01208DF800009DF800000028FBD17CBD686800210A4608F09FFCF3
:2052100029A368680221002208F099FC7CBDC0463E3E3E535441434B2041535345525400AF
:205230002A2A2A4552524F522A2A2A003E3E20494E5445524E414C204552524F522100C054
:205250003E3E20494E5445524E414C204657204552524F522100C0463E3E204445464155B6
:205270004C54205350494E4C4F434B2100C046C03E3E2057524F4E47204150492043414C01
:205290004C2100C03E3E204943414C4C2054494D454F55542100C0463E3E204943414C4C61
:2052B0002041424F525421003E3E204F5554204F46204D454D4F52592100C0460802002092
:2052D0002DE9F04FADF11C0D0190049300280392109D0291119C059500F0BC80081C00F0F6
:2052F000B980101C00F0B680181C00F0B380281C00F0B080002C00F0B280206A002800F068
:20531000A9805A4D676A281D0068002F00F0A280A16A09F0D9FF40B2071C08BF6FF00207CE
:2053300000F0948020786288216A84F82C7000EB80001218143290B288474B49086030B963
:205350002846406809F0BCFF4FF0FF377EE00846B4F802B06688277894F800900568204678
:2053700006F038FE2078AB44C01C8010CBF800002078B919491901F1040AC01C8010CAF841
:205390000000207806EB4703591901F10808C01C8010C8F80000217809EB49094B469A1967
:2053B000521902F10C09C91C8910C9F800102178D8198019401900F11005C91C8810019982
:2053D000286022780BF1040003F04AFF227802990AF1040003F044FF2278039908F10400C2
:2053F00003F03EFF2378204651464246FFF7A6F8071C14D100955846514642464B4609F0D5
:205410005BFF80462278049809F1040103F028FF22780598291D03F023FF4FFA88F7124859
:2054300021786288006801EB81015218002105F031F80D4E606A0146306888470B4840688C
:2054500009F03EFFF8B2992808BF002784F82C70384606E01CB16FF0010084F82C006FF0FD
:20547000010007B0BDE8F08F884F0020D41500202DE9F04FADF1240D079001F035F95F48BF
:20549000007808F089FC5E4D0024012806D90C3804D0401E0ED0401E09D006E009F040F88E
:2054B000022804BF01210C1C06D0696805E005211F2401E0032107246960524A1068C0F3F0
:2054D0008150012806D152F80C0C0127020E07FA02F0044309F06EFA05F1440AFF225346B8
:2054F0004018401E471C28607F1E03F8012BFBD1079A1268002602F0FF03FE2B1DD0DDF84B
:205510001CC0964633460EF0FF07FF2F0ED0B84205D3B94203D80122BA40144201D002202C
:2055300069E016430EF0FF020AF802305CF804EF5B1C0EF0FF07FE2FE7D1092002F0C2FF03
:2055500007980121A86005F1280008F0DBF900274FF0010BB9462846804600F198050BFA50
:2055700007F0044216D1064204BF07F0FF0141F4C04104D01AF80700079951F8201022484F
:2055900001F0F2FAF8B24FF0FF3108F029FCC5F8009001E004202860D8F800007F1C2D1D59
:2055B0008742DCD904A809F0E5F9184C184A2078102104AB059008F10C0007F087FA6846DC
:2055D00009F008FACDF80C906A4660681149029008F1640007F0D6FA0F4951F80D0C20F409
:2055F000F85040F4005041F80D0C0C4FC1F8FFBF4846C7F800B009B0BDE8F08F8D21002003
:20561000840F0020B43F0050007FC767D803010075E30000DDC800000D3009400800094027
:2056300061480178002900D170472DE9F843491E032984B004D9891F012940F2B180A9E0D4
:205650005A4CDFF86C912068DFF8688103685A4E03F10805062205F1080102A809F014F88E
:205670000622A91C684609F00FF82878C1091D2700F00F02032AC0F3801537D16079C0F3C7
:20569000800081421ED12169062202A808F02CFD00287AD06946284609F0AEFE002874D0AB
:2056B0003146684609F0A4FEFF286ED04743D8F80000807AF519002818BF02280AD0012827
:2056D00018BF032861D1F25D691C484609F0F0FD10285AD06B46EA1D2946484609F0E4FD4D
:2056F00006226946E81D08F0CFFF4EE000F00F00052855D16079C0F38000814245D1216909
:20571000062202A808F0F0FC00283ED06946284609F072FE002838D03146684609F068FE53
:20573000FF2832D04743D8F80000807AF519002818BF01280AD0022818BF032825D1F25D5B
:20575000691C484609F0B4FD10281ED040F2024007F036FA6B46EA1D2946484609F0A4FD6C
:2057700006226946E81D08F08FFF1448144A41F204414180418341861248018012491348A8
:2057900011600121007802F085F821680A680020107105E0002008F047FE862009F004FE00
:2057B00005B0BDE8F08300BF6F4F0020F44B0020CC470020104F0020AC450020204A0020C3
:2057D000204F0020504F0020595501106E4F00202DE9F843614C5A4D5A4EDFF870815E4F0D
:2057F00094F8E4100846401E0B2864D8DFE800F07B2C43062343062343067664042907D0A1
:2058100001220A2945F8212C14BF0220032004E0202045F8210C0120024684F8E20000200B
:2058300045F8390C0827C5F8FF7FC5F8F37F45F8392CBDE8F883052914BF09200620002704
:2058500084F8E400376075E094F8E170383D0120002FC5F81B0004BF0620002102D0002175
:20587000F160032084F8E400032045F8010C3160306880085ED294F8E410334801270329A7
:205890000ED00068456800216022052300914046A84794F8E400062814BF0A200720CFE7BC
:2058B00000684568002160220523022000904046A8470420C4E7FEE72548264F00260125EF
:2058D00006600E203D6002F077FB022007F098FC84F8E45084F8E360BDE8F883002038602F
:2058F0000C25786024E04FF08059D9F8A0010168202088472C3D0F2045F8010C41F61D56FD
:20591000C5F80360D9F8A401466800214FF4C0720723022540460095B047D9F8A401C66896
:2059300000214FF4C07207234046B0470120386084F8E45004F1780009F028FABDE8F88309
:2059500039400C4038600C40A401001000A00C402C500C4004800C4034600C4098100020AD
:205970002DE9F04F88468246ADF1AC0D299209F0CFFC5C4CE67894F80BB0A57A94F80C90C2
:20599000071C00F0AB8068460021A42204F082FD2801279A55498DF8046005F0030300F451
:2059B000807605F00405ADF800A0B9F1020F01EA020143EA01024C4B8DF8A0B046EA020126
:2059D00000F4C06603EA010246EA020045EA00054FF00000279508BF01208DF8370009F0AF
:2059F0005FFC412809DB207B00280CBF002008209DF8991008438DF89900607B002804BFAC
:205A100000208DF8380017D001208DF8380004F1860120220DF1390008F036FE0DF159005C
:205A300004F1A601202208F02FFE0DF1790004F1C601202208F028FEA07940B18DF826000B
:205A500004F1500110220DF1270008F01DFE66793EB104F16000B91D0622054608F044FBE3
:205A700068B92079002804BF00208DF8050015D08DF8050004F140010DF106000BE08DF8AE
:205A900005600DF1060005F11601102208F0FCFD0DF11600A91D102208F0F6FDE07930B12C
:205AB000B8F1000F03D0279941F002012791002100B10121A7789DF89900002F41EA000103
:205AD0008DF899100CBF002004209DF89910084329998DF89900684609F0DEFB2BB0BDE810
:205AF000F08FC046D40C0020FBF9FFFFFCFEFFFF70B5484C484B2568186855F8183F002208
:205B10004FF0FF3198474548454A416B454C8868454D41791170002609F0BAFB434809F0B9
:205B3000B3FB09F0ADFB4248026800215171A02301680722CB804A72032103681972002297
:205B500001684A7700230268D3760021036883F85C10012201680A770123026882F85D3020
:205B70000021006880F85E100EE06068F1B24FF4C072514342185379012B04D1F0B208F083
:205B90006BFE09F079FB761C2978F0B28842ECD309F06EFB2748284A0178284C117007F019
:205BB0002DF82748D02130220023017042708370C370037143718371C37109F055FB21498F
:205BD000214B00200870002220491A700120204B08701A701F49204B08701A701B201F4996
:205BF0001F4B0A701A804FF4A4721E491E4B08801A80FB201D491E4A088040F648001D4977
:205C10001080FB230B80208009F02AFB1A490020087070BDF04E0020EC4E00207004010028
:205C3000714F0020684E00207B4F0020CC470020104F00206D4F00207A4F00204E4F002080
:205C500050210020734F0020744F0020754F0020764F0020774F0020784F0020794F002060
:205C7000524F0020444F0020464F0020484F00204A4F00204C4F00206F4F00205A480178C7
:205C9000042900D870472DE9F84F891F2FD0491E012900F29E80DFF854A19AF80200FF280C
:205CB00025D008F0D9FD83460BF16C07786809F0D3FA804698F80400032818D1D8F80800ED
:205CD000047814F0030404D17868BDE8F24F09F0BFBA4578032C00F102090BF20F160BD03B
:205CF00035B1387820B93D2171700120307078E03F490A78012A74D09BF8941059B32D1FC5
:205D1000EDB24B462A462146584609F09DFA40B93D207070012131703648BDE8F24F09F0E8
:205D30008FBA35480168884700904FF4C0709BF80620DAF8041042438818002180F83911AB
:205D50000BF59A7001688079490805F0D3FA2B4900980A6890470020032CC8F8080016D062
:205D7000274841690878820707D5C0074CBF03200020401919F8000000E081203872234602
:205D90009AF802002A46494600F094F918E099F80000192803D21B4A115C8D4205D0B070AE
:205DB0000721584609F0D8FA07E00F480178082903D049465846FDF737FD484606F06AFA4A
:205DD000786809F045FA41465846BDE8F44F09F033BA002008F028FBBDE8F24F862009F0E8
:205DF000E3BABDE8F18F00BF6F4F0020684E0020794F0020AC450020B4110020B811002097
:205E100070040100A80401002DE9FF4104466668A7680D4608F0C2FF3178012903D109F027
:205E3000B7FA00208EE00121317009F0B1FA287870706878B07068687060A868B060E8681C
:205E5000F06028693061287D3075687D7075A87DB075A869B061287F3077687F7077A87FFD
:205E70004FF0000843461D4686F82851B07786F82951C6F82080336375627563B562B563F7
:205E900086F82C5086F82D50786802F01BFB204603F0CEFA204603F017FB60B9386808F0D8
:205EB00073F8786802F088F808F078FF357009F06FFA2C4645E0684608F05CFD0094387BC2
:205ED000224A0190B9686B4606F17C0006F0FEFD684608F07FFD00941D4938696A46029080
:205EF00006F1980006F04EFEB07830B906F1CC00294607F007FD17483061707830B906F1CB
:205F1000E800294607F0FEFC1348F060684608F0C3FE01958DF800501049029406F58270D0
:205F30000A226B4606F006F8B969FA6906F13C0008F0ECFC0A4A06F168000421234607F0B0
:205F500065FE20460090BDE8FF81C04615620000DDB6000025ED00001DED0000A5C400001E
:205F7000F5EA0000F0B5514C20780D46E90BADF11C0DC90372D1A80860D2E069216A6A0813
:205F90000ED2E80828BF85F0040580F08C80680904D304F083F885F0100584E0002083E018
:205FB000868861B904F11600414A00904FF6FF710223012009F03CF90146216221B304A810
:205FD00000900027019702230293FF220392E28A30460DF11203FEF7BDFC58B99DF8130096
:205FF0009DF81220216A12EB002204D04989304606F0EAFB216AE28A08463B464FF6FF71AE
:2060100009F076F901462162A069002918BF85F001051AD168B143685BB1E069808801218C
:2060300000229847A069E7694368B88803210022984708F0EBF985F0010534E00020014614
:20605000FEF774FF18B185F00205012102E0022185F00205207801F01DFC24E003F0B4FD96
:20607000071C1ED038780126B03811D0401E02D01F3808D011E0387978B97888F9883A89E9
:2060900006F0A2FB0AE03846FEF75EFB064604E0397907F10800FAF73BFB16B1384608F061
:2060B00033F885F40045A8B207B0F0BDD40C0020CC0001002DE9FC4706460C4615469A462A
:2060D000C0B208F0C9FB8146F0B208F093FC0646494F3079DFF82481012802D0022843D051
:2060F00082E0BAF1020F0AD100207080308002223271B06806F0CEF80020B06037E030883D
:2061100071882A1891420BDA00207080308002223271B06806F0BEF80020B0608B2061E015
:20613000B3682A462146184408F0AEFA30882D183580ADB27288954256D199F8741080299A
:2061500017BF81297F2198F80000091A49B200915346B168B878D2B209F066F80020708003
:206170003080022232713FE0BAF1020F3CD1042DB8BF8C2036DB20786178001D40EA012072
:206190001F49708083B20A789A4238BF8A2029D381B2A94238BF8B2024D380B209F040F84D
:2061B000B060F0B12A46214608F06EFA7288954211D199F87410802917BF81297F2198F8C6
:2061D0000000091A49B200910223B168B878D2B209F02AF808E030882D1835800121317195
:2061F00002E0812004F05AF824B12046BDE8F64706F050B8BDE8F387684E0020704F0020D7
:206210006B4F00202DE9F84F8046D8F808603068D8F80450076CDFF830B14764AB6B6A6CBB
:20623000286C17F4F06F1946A0EB020934D1F8091ED2780974D3B1B196F821205846801D31
:20625000845C601E814294BF1C1C641E4046214607F0D2FAA86B001BA86361D105F1980057
:20627000012108F0B5FD4046494607F05BFD57E00029F8D0404607F0BFFA95F82D10A863AB
:2062900011B900284CD101E00020A86305F19800012108F09DFD43E0F80A20D24FF0000A31
:2062B000544602E0AB6B5B1EAB6393B14046012107F0A2FA3068446814F00F04C0F804A07F
:2062D000F0D0286B401E2863686B401E6863A86BE8B905F19800012108F07AFD13E0306818
:2062F00044680022202904F00F044260CCBF4FF0200A9A464046514607F07EFACAF1200093
:206310008145C8BF81464946404607F00BFDEC77404605F0E5FF726A12B140462146904720
:20633000B8090FD3A96A69B10F46404607F07BFAA86238B996F820205946895C4046C91981
:2063500005F0E8FEBDE8F88F440001002DE9FC4705466E68D5F8088037780FB1B76B1FB1B1
:206370004FF0FF30BDE8FC8731630024F477171C74631BD006F13C0908F010FD82466946A7
:20639000484606F0C2FB00281ED4504609F000F89DF80000316B0870306B736B7F1E00F15B
:2063B0000100306303F101007063E5D17078726B316B0128A1EB0201316303D1F368284671
:2063D0009847726B144659E0B763D8F80010086B40F400700863D8F80010886B40F4FA6081
:2063F0008863504608F0D4FF06F5947007F0CCFE707806F5947768BB08F0D0FC96F82D10E1
:2064100069B1716B59B1B16B49B1B46308F0C0FF06F5947007F0A8FE706BBDE8FC8708F0F1
:20643000B7FF716806F1E805284608F078FA0028F2D0B4632846214608F071FA0028EBD0E5
:20645000384607F091FE1027716B306BF777401A3063E1E708F0A2FC96F82D1061B1716B08
:2064700051B1B16B41B1B46308F092FF06F19800012108F0ADFC01E008F08AFF2046BDE89D
:20649000FC8770472DE9F041494E0546307CADF1500DA84209D13078012106F081FF307836
:2064B000022106F07DFF07F0B1FF6C0004EB85040E210FAA04F1200004F120075FFA80F8C2
:2064D000F8B207F0EBFE00286DD106200DF13B0111F8012FFF2A02D1401EF9D163E068460E
:2064F000FF211C2203F0D6FF07A8FF21102203F0D1FF04F1230010210BAAC0B2074607F0EE
:20651000CDFEB0B910200DF12B0111F8012FFF2A02D1401EF9D10CE02648007838B99DF828
:2065300042000FA900F0010008F0D6FE01E00120B0740FA8FF210E2203F0ACFF40460E2114
:206550000FAA00F0A5FC06461C216A4604F12100C0B200F09DFC1C216A46064304F122004A
:20657000C0B200F095FC10216A460643384600F08FFC10216A46064304F12400C0B200F050
:2065900087FC04F1250704216A460643F8B200F07FFC7035102107AA40EA0604E8B200F0CF
:2065B00077FC204300E0002014B0BDE8F081C046D40C00205A4F00202DE9FE4F00281C465F
:2065D00000908B46019200F08180BBF1000F7DD0101C7BD0002C7ED0206A002876D0414D47
:2065F000676A281D0068002F70D0A16A08F06CFE40B2071C08BF6FF0020063D0207862883F
:20661000216A84F82C7000EB400012180C3290B288473349086030B92846406808F050FEFA
:206630004FF0FF304EE088466588B4F8029094F800A0D8F80060204605F0CCFC20780AEBA9
:206650000907AD19BF1909EB4A01C01C80108E192860207800993F1DC01C80103860207879
:206670000836C01C801030602278281D02F0F8FD28463A463346014608F0CEFD2278391DA9
:206690008146584602F0ECFD22780198311D02F0E7FD21786288D8F8000001EB4101521868
:2066B000002103F0F7FE606A0146D8F8000088470C48406808F004FE4FFA89F0C1B2992924
:2066D00008BF002084F82C00BDE8FE8F1CB16FF0010084F82C006FF00100BDE8FE8FC0467C
:2066F000884F0020D41500202DE9FF47484C94F8E700002876D13E4E01273C48F57C84F893
:20671000E770736884F8E6500068C4F81031C0F3801084F8E800684608F0BEFA002504F101
:206730000C0001956B468DF80050324902952A4605F000FC304904F130006B462A4605F0FA
:20675000F9FB2E4904F154006B4681462A4605F0F1FBB16838468847DFF8B0802848327D20
:2067700008F104030078284E1868C0F3815A22B1BAF1030F04D184F8E170BAF1030F17D037
:20679000BAF1020F14D0BAF1010F0ED0022006F0E7FE1C480068016804208847012804D08E
